{
  "contractName": "BasicToken",
  "abi": [
    {
      "constant": true,
      "inputs": [],
      "name": "NAME",
      "outputs": [
        {
          "name": "",
          "type": "string"
        }
      ],
      "payable": false,
      "stateMutability": "view",
      "type": "function"
    },
    {
      "constant": true,
      "inputs": [],
      "name": "SYMBOL",
      "outputs": [
        {
          "name": "",
          "type": "string"
        }
      ],
      "payable": false,
      "stateMutability": "view",
      "type": "function"
    },
    {
      "inputs": [
        {
          "name": "INITIAL_SUPPLY",
          "type": "uint256"
        },
        {
          "name": "_owner",
          "type": "address"
        }
      ],
      "payable": false,
      "stateMutability": "nonpayable",
      "type": "constructor"
    },
    {
      "anonymous": false,
      "inputs": [
        {
          "indexed": true,
          "name": "from",
          "type": "address"
        },
        {
          "indexed": true,
          "name": "to",
          "type": "address"
        },
        {
          "indexed": false,
          "name": "value",
          "type": "uint256"
        }
      ],
      "name": "Transfer",
      "type": "event"
    },
    {
      "constant": true,
      "inputs": [],
      "name": "totalSupply",
      "outputs": [
        {
          "name": "",
          "type": "uint256"
        }
      ],
      "payable": false,
      "stateMutability": "view",
      "type": "function"
    },
    {
      "constant": false,
      "inputs": [
        {
          "name": "_to",
          "type": "address"
        },
        {
          "name": "_value",
          "type": "uint256"
        }
      ],
      "name": "transfer",
      "outputs": [
        {
          "name": "",
          "type": "bool"
        }
      ],
      "payable": false,
      "stateMutability": "nonpayable",
      "type": "function"
    },
    {
      "constant": true,
      "inputs": [
        {
          "name": "_owner",
          "type": "address"
        }
      ],
      "name": "balanceOf",
      "outputs": [
        {
          "name": "balance",
          "type": "uint256"
        }
      ],
      "payable": false,
      "stateMutability": "view",
      "type": "function"
    }
  ],
  "bytecode": "0x6060604052341561000f57600080fd5b60405160408061062c8339810160405280805190602001909190805190602001909190505081600181905550816000808373ffffffffffffffffffffffffffffffffffffffff1673ffffffffffffffffffffffffffffffffffffffff168152602001908152602001600020819055508073ffffffffffffffffffffffffffffffffffffffff1660007fddf252ad1be2c89b69c2b068fc378daa952ba7f163c4a11628f55a4df523b3ef846040518082815260200191505060405180910390a3505061054d806100df6000396000f30060606040526004361061006d576000357c0100000000000000000000000000000000000000000000000000000000900463ffffffff16806318160ddd1461007257806370a082311461009b578063a3f4df7e146100e8578063a9059cbb14610176578063f76f8d78146101d0575b600080fd5b341561007d57600080fd5b61008561025e565b6040518082815260200191505060405180910390f35b34156100a657600080fd5b6100d2600480803573ffffffffffffffffffffffffffffffffffffffff16906020019091905050610268565b6040518082815260200191505060405180910390f35b34156100f357600080fd5b6100fb6102b0565b6040518080602001828103825283818151815260200191508051906020019080838360005b8381101561013b578082015181840152602081019050610120565b50505050905090810190601f1680156101685780820380516001836020036101000a031916815260200191505b509250505060405180910390f35b341561018157600080fd5b6101b6600480803573ffffffffffffffffffffffffffffffffffffffff169060200190919080359060200190919050506102e9565b604051808215151515815260200191505060405180910390f35b34156101db57600080fd5b6101e36104e8565b6040518080602001828103825283818151815260200191508051906020019080838360005b83811015610223578082015181840152602081019050610208565b50505050905090810190601f1680156102505780820380516001836020036101000a031916815260200191505b509250505060405180910390f35b6000600154905090565b60008060008373ffffffffffffffffffffffffffffffffffffffff1673ffffffffffffffffffffffffffffffffffffffff168152602001908152602001600020549050919050565b6040805190810160405280600a81526020017f4261736963546f6b656e0000000000000000000000000000000000000000000081525081565b60008073ffffffffffffffffffffffffffffffffffffffff168373ffffffffffffffffffffffffffffffffffffffff161415151561032657600080fd5b6000803373ffffffffffffffffffffffffffffffffffffffff1673ffffffffffffffffffffffffffffffffffffffff16815260200190815260200160002054821115151561037357600080fd5b816000803373ffffffffffffffffffffffffffffffffffffffff1673ffffffffffffffffffffffffffffffffffffffff16815260200190815260200160002054036000803373ffffffffffffffffffffffffffffffffffffffff1673ffffffffffffffffffffffffffffffffffffffff16815260200190815260200160002081905550816000808573ffffffffffffffffffffffffffffffffffffffff1673ffffffffffffffffffffffffffffffffffffffff16815260200190815260200160002054016000808573ffffffffffffffffffffffffffffffffffffffff1673ffffffffffffffffffffffffffffffffffffffff168152602001908152602001600020819055508273ffffffffffffffffffffffffffffffffffffffff163373ffffffffffffffffffffffffffffffffffffffff167fddf252ad1be2c89b69c2b068fc378daa952ba7f163c4a11628f55a4df523b3ef846040518082815260200191505060405180910390a36001905092915050565b6040805190810160405280600381526020017f42544e0000000000000000000000000000000000000000000000000000000000815250815600a165627a7a7230582040b8fb0d349f70b7385ad3957a711dbff1c436c570950da25cfa29604e1e84ea0029",
  "source": "pragma solidity ^0.4.18;\n\ncontract BasicToken {\n  mapping(address => uint256) balances; // point to the balance of the user, total supply (like a hash map)\n  string public constant NAME = \"BasicToken\"; // convention to list on an exchange \n  string public constant SYMBOL = \"BTN\";\n  uint256 totalSupply_; // depends on the logic of your contract\n  event Transfer(address indexed from, address indexed to, uint256 value); // web3 allows to query against the blockchin in a native app, listeners, this is like a 'push'\n\n// function below is a constructor that only runs once, to setup the initial supply, the default\n// *Mintable token would allow for some adjustable here, but that is not ERC20 stand\n  function BasicToken (uint256 INITIAL_SUPPLY, address _owner) {\n    totalSupply_ = INITIAL_SUPPLY;\n    balances[_owner] = INITIAL_SUPPLY; // gives the owner all the tokens\n    emit Transfer(0x0, _owner, INITIAL_SUPPLY); // 'Ox0' signifes this is 1t transfer thats happening, contract creation address \n  }\n// public ca view this contract, also for the exchanges\n  function totalSupply() public view returns (uint256) {\n    return totalSupply_;\n  }\n// \n  function transfer(address _to, uint256 _value) public returns (bool) { // can be (bool sucess) but then would have to return \"success\"\n    require(_to != address(0)); // this is an assertion to chack the 0x0 address\n    require(_value <= balances[msg.sender]); // make sure the sender has some tokens, would be able to send as much as you wanted if not there, not a security flwa if not there\n    \n    balances[msg.sender] = balances[msg.sender] - _value; // takes amt from sender\n    balances[_to] = balances[_to] + _value; // adds amt to receiver\n    emit Transfer(msg.sender, _to, _value); // whomever is listending to this event can update their stuff accordingly\n    return true; // \n  }\n\n  function balanceOf(address _owner) public view returns (uint256 balance) {\n    return balances[_owner]; // if the address is on the mapping it returns the blance if its not then returns 0\n  }\n}",
  "sourcePath": "/Users/phil/dev/basic_token_1/contracts/BasicToken.sol",
  "compiler": {
    "name": "solc",
    "version": "0.4.21+commit.dfe3193c.Emscripten.clang"
  },
  "schemaVersion": "2.0.0",
  "updatedAt": "2018-04-18T02:53:36.871Z"
}